{
  "address": "0xd0AB35EdF257B2790274d84D485b4B91D90D6144",
  "abi": [
    {
      "inputs": [
        {
          "internalType": "uint256",
          "name": "_maxMessageLimit",
          "type": "uint256"
        },
        {
          "internalType": "uint16",
          "name": "_contractIndex",
          "type": "uint16"
        }
      ],
      "stateMutability": "nonpayable",
      "type": "constructor"
    },
    {
      "inputs": [],
      "name": "DuplicateIdCommitment",
      "type": "error"
    },
    {
      "inputs": [],
      "name": "FullTree",
      "type": "error"
    },
    {
      "inputs": [
        {
          "internalType": "uint256",
          "name": "idCommitment",
          "type": "uint256"
        }
      ],
      "name": "InvalidIdCommitment",
      "type": "error"
    },
    {
      "inputs": [
        {
          "internalType": "uint256",
          "name": "startIndex",
          "type": "uint256"
        },
        {
          "internalType": "uint256",
          "name": "endIndex",
          "type": "uint256"
        }
      ],
      "name": "InvalidPaginationQuery",
      "type": "error"
    },
    {
      "inputs": [
        {
          "internalType": "uint256",
          "name": "messageLimit",
          "type": "uint256"
        }
      ],
      "name": "InvalidUserMessageLimit",
      "type": "error"
    },
    {
      "inputs": [],
      "name": "MalformedCommitmentToMessageLimitMap",
      "type": "error"
    },
    {
      "inputs": [],
      "name": "NotImplemented",
      "type": "error"
    },
    {
      "anonymous": false,
      "inputs": [
        {
          "indexed": false,
          "internalType": "uint256",
          "name": "idCommitment",
          "type": "uint256"
        },
        {
          "indexed": false,
          "internalType": "uint256",
          "name": "userMessageLimit",
          "type": "uint256"
        },
        {
          "indexed": false,
          "internalType": "uint256",
          "name": "index",
          "type": "uint256"
        }
      ],
      "name": "MemberRegistered",
      "type": "event"
    },
    {
      "anonymous": false,
      "inputs": [
        {
          "indexed": false,
          "internalType": "uint256",
          "name": "idCommitment",
          "type": "uint256"
        },
        {
          "indexed": false,
          "internalType": "uint256",
          "name": "index",
          "type": "uint256"
        }
      ],
      "name": "MemberWithdrawn",
      "type": "event"
    },
    {
      "anonymous": false,
      "inputs": [
        {
          "indexed": true,
          "internalType": "address",
          "name": "previousOwner",
          "type": "address"
        },
        {
          "indexed": true,
          "internalType": "address",
          "name": "newOwner",
          "type": "address"
        }
      ],
      "name": "OwnershipTransferred",
      "type": "event"
    },
    {
      "inputs": [],
      "name": "DEPTH",
      "outputs": [
        {
          "internalType": "uint256",
          "name": "",
          "type": "uint256"
        }
      ],
      "stateMutability": "view",
      "type": "function"
    },
    {
      "inputs": [],
      "name": "MAX_MESSAGE_LIMIT",
      "outputs": [
        {
          "internalType": "uint256",
          "name": "",
          "type": "uint256"
        }
      ],
      "stateMutability": "view",
      "type": "function"
    },
    {
      "inputs": [],
      "name": "MEMBERSHIP_DEPOSIT",
      "outputs": [
        {
          "internalType": "uint256",
          "name": "",
          "type": "uint256"
        }
      ],
      "stateMutability": "view",
      "type": "function"
    },
    {
      "inputs": [],
      "name": "Q",
      "outputs": [
        {
          "internalType": "uint256",
          "name": "",
          "type": "uint256"
        }
      ],
      "stateMutability": "view",
      "type": "function"
    },
    {
      "inputs": [],
      "name": "SET_SIZE",
      "outputs": [
        {
          "internalType": "uint256",
          "name": "",
          "type": "uint256"
        }
      ],
      "stateMutability": "view",
      "type": "function"
    },
    {
      "inputs": [],
      "name": "contractIndex",
      "outputs": [
        {
          "internalType": "uint16",
          "name": "",
          "type": "uint16"
        }
      ],
      "stateMutability": "view",
      "type": "function"
    },
    {
      "inputs": [],
      "name": "deployedBlockNumber",
      "outputs": [
        {
          "internalType": "uint32",
          "name": "",
          "type": "uint32"
        }
      ],
      "stateMutability": "view",
      "type": "function"
    },
    {
      "inputs": [
        {
          "internalType": "uint256",
          "name": "startIndex",
          "type": "uint256"
        },
        {
          "internalType": "uint256",
          "name": "endIndex",
          "type": "uint256"
        }
      ],
      "name": "getCommitments",
      "outputs": [
        {
          "internalType": "uint256[]",
          "name": "",
          "type": "uint256[]"
        }
      ],
      "stateMutability": "view",
      "type": "function"
    },
    {
      "inputs": [
        {
          "internalType": "uint256",
          "name": "userMessageLimit",
          "type": "uint256"
        }
      ],
      "name": "getDepositAmount",
      "outputs": [
        {
          "internalType": "uint256",
          "name": "",
          "type": "uint256"
        }
      ],
      "stateMutability": "view",
      "type": "function"
    },
    {
      "inputs": [],
      "name": "idCommitmentIndex",
      "outputs": [
        {
          "internalType": "uint256",
          "name": "",
          "type": "uint256"
        }
      ],
      "stateMutability": "view",
      "type": "function"
    },
    {
      "inputs": [
        {
          "internalType": "uint256",
          "name": "",
          "type": "uint256"
        }
      ],
      "name": "indexToCommitment",
      "outputs": [
        {
          "internalType": "uint256",
          "name": "",
          "type": "uint256"
        }
      ],
      "stateMutability": "view",
      "type": "function"
    },
    {
      "inputs": [
        {
          "internalType": "uint256",
          "name": "idCommitment",
          "type": "uint256"
        }
      ],
      "name": "isValidCommitment",
      "outputs": [
        {
          "internalType": "bool",
          "name": "",
          "type": "bool"
        }
      ],
      "stateMutability": "pure",
      "type": "function"
    },
    {
      "inputs": [
        {
          "internalType": "uint256",
          "name": "",
          "type": "uint256"
        }
      ],
      "name": "memberExists",
      "outputs": [
        {
          "internalType": "bool",
          "name": "",
          "type": "bool"
        }
      ],
      "stateMutability": "view",
      "type": "function"
    },
    {
      "inputs": [
        {
          "internalType": "uint256",
          "name": "",
          "type": "uint256"
        }
      ],
      "name": "members",
      "outputs": [
        {
          "internalType": "uint256",
          "name": "",
          "type": "uint256"
        }
      ],
      "stateMutability": "view",
      "type": "function"
    },
    {
      "inputs": [],
      "name": "owner",
      "outputs": [
        {
          "internalType": "address",
          "name": "",
          "type": "address"
        }
      ],
      "stateMutability": "view",
      "type": "function"
    },
    {
      "inputs": [
        {
          "internalType": "uint256[]",
          "name": "commitments",
          "type": "uint256[]"
        },
        {
          "internalType": "uint256[]",
          "name": "limits",
          "type": "uint256[]"
        }
      ],
      "name": "register",
      "outputs": [],
      "stateMutability": "nonpayable",
      "type": "function"
    },
    {
      "inputs": [
        {
          "internalType": "uint256",
          "name": "idCommitment",
          "type": "uint256"
        },
        {
          "internalType": "uint256",
          "name": "userMessageLimit",
          "type": "uint256"
        }
      ],
      "name": "register",
      "outputs": [],
      "stateMutability": "payable",
      "type": "function"
    },
    {
      "inputs": [],
      "name": "renounceOwnership",
      "outputs": [],
      "stateMutability": "nonpayable",
      "type": "function"
    },
    {
      "inputs": [
        {
          "internalType": "uint256",
          "name": "idCommitment",
          "type": "uint256"
        },
        {
          "internalType": "address payable",
          "name": "receiver",
          "type": "address"
        },
        {
          "internalType": "uint256[8]",
          "name": "proof",
          "type": "uint256[8]"
        }
      ],
      "name": "slash",
      "outputs": [],
      "stateMutability": "pure",
      "type": "function"
    },
    {
      "inputs": [
        {
          "internalType": "uint256",
          "name": "",
          "type": "uint256"
        }
      ],
      "name": "stakedAmounts",
      "outputs": [
        {
          "internalType": "uint256",
          "name": "",
          "type": "uint256"
        }
      ],
      "stateMutability": "view",
      "type": "function"
    },
    {
      "inputs": [
        {
          "internalType": "address",
          "name": "newOwner",
          "type": "address"
        }
      ],
      "name": "transferOwnership",
      "outputs": [],
      "stateMutability": "nonpayable",
      "type": "function"
    },
    {
      "inputs": [
        {
          "internalType": "uint256",
          "name": "",
          "type": "uint256"
        }
      ],
      "name": "userMessageLimits",
      "outputs": [
        {
          "internalType": "uint256",
          "name": "",
          "type": "uint256"
        }
      ],
      "stateMutability": "view",
      "type": "function"
    },
    {
      "inputs": [],
      "name": "verifier",
      "outputs": [
        {
          "internalType": "contract IVerifier",
          "name": "",
          "type": "address"
        }
      ],
      "stateMutability": "view",
      "type": "function"
    },
    {
      "inputs": [],
      "name": "withdraw",
      "outputs": [],
      "stateMutability": "pure",
      "type": "function"
    },
    {
      "inputs": [
        {
          "internalType": "address",
          "name": "",
          "type": "address"
        }
      ],
      "name": "withdrawalBalance",
      "outputs": [
        {
          "internalType": "uint256",
          "name": "",
          "type": "uint256"
        }
      ],
      "stateMutability": "view",
      "type": "function"
    }
  ],
  "transactionHash": "0x7ed598fc636b430ec57a9444371595768d1c03d51a4c5f825caf6a4355cec295",
  "args": [
    20,
    0
  ],
  "numDeployments": 1,
  "bytecode": "0x61016060405260006001553480156200001757600080fd5b5060405162001ab038038062001ab083398181016040528101906200003d91906200023a565b600060148360006200006462000058620000ef60201b60201c565b620000f760201b60201c565b8360a0818152505081608081815250508260c08181525050826001901b60e081815250508073ffffffffffffffffffffffffffffffffffffffff166101008173ffffffffffffffffffffffffffffffffffffffff16815250504363ffffffff166101208163ffffffff1681525050505050508061ffff166101408161ffff1681525050505062000281565b600033905090565b60008060009054906101000a900473ffffffffffffffffffffffffffffffffffffffff169050816000806101000a81548173ffffffffffffffffffffffffffffffffffffffff021916908373ffffffffffffffffffffffffffffffffffffffff1602179055508173ffffffffffffffffffffffffffffffffffffffff168173ffffffffffffffffffffffffffffffffffffffff167f8be0079c531659141344cd1fd0a4f28419497f9722a3daafe3b4186f6b6457e060405160405180910390a35050565b600080fd5b6000819050919050565b620001d581620001c0565b8114620001e157600080fd5b50565b600081519050620001f581620001ca565b92915050565b600061ffff82169050919050565b6200021481620001fb565b81146200022057600080fd5b50565b600081519050620002348162000209565b92915050565b60008060408385031215620002545762000253620001bb565b5b60006200026485828601620001e4565b9250506020620002778582860162000223565b9150509250929050565b60805160a05160c05160e0516101005161012051610140516117bf620002f16000396000610661015260006107c401526000610685015260008181610a6c0152610f1401526000610a1201526000818161075f0152610ac20152600081816106050152610dc201526117bf6000f3fe6080604052600436106101665760003560e01c80638be9b119116100d1578063bc4991281161008a578063d66d6c1011610064578063d66d6c1014610568578063e493ef8c14610584578063f220b9ec146105af578063f2fde38b146105da57610166565b8063bc499128146104c3578063c5b208ff14610500578063d0383d681461053d57610166565b80638be9b1191461039f5780638da5cb5b146103c85780639056a9bf146103f3578063933ebfdd1461043057806398366e351461046d578063ae74552a1461049857610166565b80633ccfd60b116101235780633ccfd60b1461028f5780634add651e146102a65780635daf08ca146102d15780636bdcc8ab1461030e578063715018a61461034b5780637671ac051461036257610166565b806309aeb04c1461016b57806322d9730c1461019657806328b070e0146101d35780632b7ac3f3146101fe5780632de999bf14610229578063378de45b14610252575b600080fd5b34801561017757600080fd5b50610180610603565b60405161018d9190610f8c565b60405180910390f35b3480156101a257600080fd5b506101bd60048036038101906101b89190610fdd565b610627565b6040516101ca9190611025565b60405180910390f35b3480156101df57600080fd5b506101e861065f565b6040516101f5919061105d565b60405180910390f35b34801561020a57600080fd5b50610213610683565b60405161022091906110f7565b60405180910390f35b34801561023557600080fd5b50610250600480360381019061024b9190611177565b6106a7565b005b34801561025e57600080fd5b5061027960048036038101906102749190610fdd565b61075b565b6040516102869190610f8c565b60405180910390f35b34801561029b57600080fd5b506102a4610790565b005b3480156102b257600080fd5b506102bb6107c2565b6040516102c89190611217565b60405180910390f35b3480156102dd57600080fd5b506102f860048036038101906102f39190610fdd565b6107e6565b6040516103059190610f8c565b60405180910390f35b34801561031a57600080fd5b5061033560048036038101906103309190610fdd565b6107fe565b6040516103429190611025565b60405180910390f35b34801561035757600080fd5b5061036061081e565b005b34801561036e57600080fd5b5061038960048036038101906103849190610fdd565b610832565b6040516103969190610f8c565b60405180910390f35b3480156103ab57600080fd5b506103c660048036038101906103c19190611292565b61084a565b005b3480156103d457600080fd5b506103dd61087c565b6040516103ea9190611307565b60405180910390f35b3480156103ff57600080fd5b5061041a60048036038101906104159190610fdd565b6108a5565b6040516104279190610f8c565b60405180910390f35b34801561043c57600080fd5b5061045760048036038101906104529190611322565b6108bd565b6040516104649190611420565b60405180910390f35b34801561047957600080fd5b50610482610a10565b60405161048f9190610f8c565b60405180910390f35b3480156104a457600080fd5b506104ad610a34565b6040516104ba9190610f8c565b60405180910390f35b3480156104cf57600080fd5b506104ea60048036038101906104e59190610fdd565b610a3a565b6040516104f79190610f8c565b60405180910390f35b34801561050c57600080fd5b506105276004803603810190610522919061146e565b610a52565b6040516105349190610f8c565b60405180910390f35b34801561054957600080fd5b50610552610a6a565b60405161055f9190610f8c565b60405180910390f35b610582600480360381019061057d9190611322565b610a8e565b005b34801561059057600080fd5b50610599610a9c565b6040516105a69190610f8c565b60405180910390f35b3480156105bb57600080fd5b506105c4610ac0565b6040516105d19190610f8c565b60405180910390f35b3480156105e657600080fd5b5061060160048036038101906105fc919061146e565b610ae4565b005b7f000000000000000000000000000000000000000000000000000000000000000081565b600080821415801561065857507f30644e72e131a029b85045b68181585d2833e84879b9709143e1f593f000000182105b9050919050565b7f000000000000000000000000000000000000000000000000000000000000000081565b7f000000000000000000000000000000000000000000000000000000000000000081565b6106af610b67565b838383836106bf84848484610be5565b6106f5576040517fb750624800000000000000000000000000000000000000000000000000000000815260040160405180910390fd5b600088889050905060005b8181101561074f576107448a8a8381811061071e5761071d61149b565b5b905060200201358989848181106107385761073761149b565b5b90506020020135610c17565b806001019050610700565b50505050505050505050565b60007f00000000000000000000000000000000000000000000000000000000000000008261078991906114f9565b9050919050565b6040517fd623472500000000000000000000000000000000000000000000000000000000815260040160405180910390fd5b7f000000000000000000000000000000000000000000000000000000000000000081565b60036020528060005260406000206000915090505481565b60066020528060005260406000206000915054906101000a900460ff1681565b610826610b67565b6108306000610cf3565b565b60056020528060005260406000206000915090505481565b6040517fd623472500000000000000000000000000000000000000000000000000000000815260040160405180910390fd5b60008060009054906101000a900473ffffffffffffffffffffffffffffffffffffffff16905090565b60046020528060005260406000206000915090505481565b60608183106109055782826040517f9ffcd53d0000000000000000000000000000000000000000000000000000000081526004016108fc92919061153b565b60405180910390fd5b60015482111561094e5782826040517f9ffcd53d00000000000000000000000000000000000000000000000000000000815260040161094592919061153b565b60405180910390fd5b6000838361095c9190611564565b67ffffffffffffffff81111561097557610974611598565b5b6040519080825280602002602001820160405280156109a35781602001602082028036833780820191505090505b50905060008490505b83811015610a055760056000828152602001908152602001600020548286836109d59190611564565b815181106109e6576109e561149b565b5b60200260200101818152505080806109fd906115c7565b9150506109ac565b508091505092915050565b7f000000000000000000000000000000000000000000000000000000000000000081565b60015481565b60026020528060005260406000206000915090505481565b60076020528060005260406000206000915090505481565b7f000000000000000000000000000000000000000000000000000000000000000081565b610a988282610c17565b5050565b7f30644e72e131a029b85045b68181585d2833e84879b9709143e1f593f000000181565b7f000000000000000000000000000000000000000000000000000000000000000081565b610aec610b67565b600073ffffffffffffffffffffffffffffffffffffffff168173ffffffffffffffffffffffffffffffffffffffff1603610b5b576040517f08c379a0000000000000000000000000000000000000000000000000000000008152600401610b5290611692565b60405180910390fd5b610b6481610cf3565b50565b610b6f610db7565b73ffffffffffffffffffffffffffffffffffffffff16610b8d61087c565b73ffffffffffffffffffffffffffffffffffffffff1614610be3576040517f08c379a0000000000000000000000000000000000000000000000000000000008152600401610bda906116fe565b60405180910390fd5b565b6000808585905090506000848490509050808214610c0857600092505050610c0f565b6001925050505b949350505050565b610c218282610dbf565b6001546003600084815260200190815260200160002081905550816005600060015481526020019081526020016000208190555060016006600084815260200190815260200160002060006101000a81548160ff0219169083151502179055508060046000848152602001908152602001600020819055507fff42916a89d1f5125f7f47168ee59c2b3fc9246ad1b229082ee85b69d001b5d78282600154604051610cce9392919061171e565b60405180910390a16001806000828254610ce89190611755565b925050819055505050565b60008060009054906101000a900473ffffffffffffffffffffffffffffffffffffffff169050816000806101000a81548173ffffffffffffffffffffffffffffffffffffffff021916908373ffffffffffffffffffffffffffffffffffffffff1602179055508173ffffffffffffffffffffffffffffffffffffffff168173ffffffffffffffffffffffffffffffffffffffff167f8be0079c531659141344cd1fd0a4f28419497f9722a3daafe3b4186f6b6457e060405160405180910390a35050565b600033905090565b807f0000000000000000000000000000000000000000000000000000000000000000811115610e2557806040517f13a5e2ee000000000000000000000000000000000000000000000000000000008152600401610e1c9190610f8c565b60405180910390fd5b60008103610e6a57806040517f13a5e2ee000000000000000000000000000000000000000000000000000000008152600401610e619190610f8c565b60405180910390fd5b82610e7481610627565b610eb557806040517f7f3e75af000000000000000000000000000000000000000000000000000000008152600401610eac9190610f8c565b60405180910390fd5b600115156006600086815260200190815260200160002060009054906101000a900460ff16151503610f12576040517e0a60f700000000000000000000000000000000000000000000000000000000815260040160405180910390fd5b7f000000000000000000000000000000000000000000000000000000000000000060015410610f6d576040517f57f6953100000000000000000000000000000000000000000000000000000000815260040160405180910390fd5b50505050565b6000819050919050565b610f8681610f73565b82525050565b6000602082019050610fa16000830184610f7d565b92915050565b600080fd5b600080fd5b610fba81610f73565b8114610fc557600080fd5b50565b600081359050610fd781610fb1565b92915050565b600060208284031215610ff357610ff2610fa7565b5b600061100184828501610fc8565b91505092915050565b60008115159050919050565b61101f8161100a565b82525050565b600060208201905061103a6000830184611016565b92915050565b600061ffff82169050919050565b61105781611040565b82525050565b6000602082019050611072600083018461104e565b92915050565b600073ffffffffffffffffffffffffffffffffffffffff82169050919050565b6000819050919050565b60006110bd6110b86110b384611078565b611098565b611078565b9050919050565b60006110cf826110a2565b9050919050565b60006110e1826110c4565b9050919050565b6110f1816110d6565b82525050565b600060208201905061110c60008301846110e8565b92915050565b600080fd5b600080fd5b600080fd5b60008083601f84011261113757611136611112565b5b8235905067ffffffffffffffff81111561115457611153611117565b5b6020830191508360208202830111156111705761116f61111c565b5b9250929050565b6000806000806040858703121561119157611190610fa7565b5b600085013567ffffffffffffffff8111156111af576111ae610fac565b5b6111bb87828801611121565b9450945050602085013567ffffffffffffffff8111156111de576111dd610fac565b5b6111ea87828801611121565b925092505092959194509250565b600063ffffffff82169050919050565b611211816111f8565b82525050565b600060208201905061122c6000830184611208565b92915050565b600061123d82611078565b9050919050565b61124d81611232565b811461125857600080fd5b50565b60008135905061126a81611244565b92915050565b60008190508260206008028201111561128c5761128b61111c565b5b92915050565b600080600061014084860312156112ac576112ab610fa7565b5b60006112ba86828701610fc8565b93505060206112cb8682870161125b565b92505060406112dc86828701611270565b9150509250925092565b60006112f182611078565b9050919050565b611301816112e6565b82525050565b600060208201905061131c60008301846112f8565b92915050565b6000806040838503121561133957611338610fa7565b5b600061134785828601610fc8565b925050602061135885828601610fc8565b9150509250929050565b600081519050919050565b600082825260208201905092915050565b6000819050602082019050919050565b61139781610f73565b82525050565b60006113a9838361138e565b60208301905092915050565b6000602082019050919050565b60006113cd82611362565b6113d7818561136d565b93506113e28361137e565b8060005b838110156114135781516113fa888261139d565b9750611405836113b5565b9250506001810190506113e6565b5085935050505092915050565b6000602082019050818103600083015261143a81846113c2565b905092915050565b61144b816112e6565b811461145657600080fd5b50565b60008135905061146881611442565b92915050565b60006020828403121561148457611483610fa7565b5b600061149284828501611459565b91505092915050565b7f4e487b7100000000000000000000000000000000000000000000000000000000600052603260045260246000fd5b7f4e487b7100000000000000000000000000000000000000000000000000000000600052601160045260246000fd5b600061150482610f73565b915061150f83610f73565b925082820261151d81610f73565b91508282048414831517611534576115336114ca565b5b5092915050565b60006040820190506115506000830185610f7d565b61155d6020830184610f7d565b9392505050565b600061156f82610f73565b915061157a83610f73565b9250828203905081811115611592576115916114ca565b5b92915050565b7f4e487b7100000000000000000000000000000000000000000000000000000000600052604160045260246000fd5b60006115d282610f73565b91507fffffffffffffffffffffffffffffffffffffffffffffffffffffffffffffffff8203611604576116036114ca565b5b600182019050919050565b600082825260208201905092915050565b7f4f776e61626c653a206e6577206f776e657220697320746865207a65726f206160008201527f6464726573730000000000000000000000000000000000000000000000000000602082015250565b600061167c60268361160f565b915061168782611620565b604082019050919050565b600060208201905081810360008301526116ab8161166f565b9050919050565b7f4f776e61626c653a2063616c6c6572206973206e6f7420746865206f776e6572600082015250565b60006116e860208361160f565b91506116f3826116b2565b602082019050919050565b60006020820190508181036000830152611717816116db565b9050919050565b60006060820190506117336000830186610f7d565b6117406020830185610f7d565b61174d6040830184610f7d565b949350505050565b600061176082610f73565b915061176b83610f73565b9250828201905080821115611783576117826114ca565b5b9291505056fea2646970667358221220f6c3084e40c3d832e80d8784a217128c00d11febcddb3c95a294a3dda6d98fcc64736f6c63430008130033",
  "devdoc": {
    "events": {
      "MemberRegistered(uint256,uint256,uint256)": {
        "params": {
          "idCommitment": "The idCommitment of the member",
          "index": "The index of the member in the set",
          "userMessageLimit": "the user message limit of the member"
        }
      },
      "MemberWithdrawn(uint256,uint256)": {
        "params": {
          "idCommitment": "The idCommitment of the member",
          "index": "The index of the member in the set"
        }
      }
    },
    "kind": "dev",
    "methods": {
      "getDepositAmount(uint256)": {
        "params": {
          "userMessageLimit": "The message limit of the member TODO: update this function as per tokenomics design"
        }
      },
      "owner()": {
        "details": "Returns the address of the current owner."
      },
      "register(uint256,uint256)": {
        "params": {
          "idCommitment": "The idCommitment of the member",
          "userMessageLimit": "The message limit of the member"
        }
      },
      "renounceOwnership()": {
        "details": "Leaves the contract without owner. It will not be possible to call `onlyOwner` functions. Can only be called by the current owner. NOTE: Renouncing ownership will leave the contract without an owner, thereby disabling any functionality that is only available to the owner."
      },
      "slash(uint256,address,uint256[8])": {
        "details": "Allows a user to slash a member",
        "params": {
          "idCommitment": "The idCommitment of the member"
        }
      },
      "transferOwnership(address)": {
        "details": "Transfers ownership of the contract to a new account (`newOwner`). Can only be called by the current owner."
      }
    },
    "version": 1
  }
}