{
  "address": "0xC58900Eeb0bE8C7f54DdCD40488B30cDeEBCcbD8",
  "abi": [
    {
      "inputs": [],
      "name": "IncompatibleStorageIndex",
      "type": "error"
    },
    {
      "inputs": [],
      "name": "InvalidMaxMessageLimit",
      "type": "error"
    },
    {
      "inputs": [],
      "name": "NoStorageContractAvailable",
      "type": "error"
    },
    {
      "anonymous": false,
      "inputs": [
        {
          "indexed": false,
          "internalType": "address",
          "name": "previousAdmin",
          "type": "address"
        },
        {
          "indexed": false,
          "internalType": "address",
          "name": "newAdmin",
          "type": "address"
        }
      ],
      "name": "AdminChanged",
      "type": "event"
    },
    {
      "anonymous": false,
      "inputs": [
        {
          "indexed": true,
          "internalType": "address",
          "name": "beacon",
          "type": "address"
        }
      ],
      "name": "BeaconUpgraded",
      "type": "event"
    },
    {
      "anonymous": false,
      "inputs": [
        {
          "indexed": false,
          "internalType": "uint8",
          "name": "version",
          "type": "uint8"
        }
      ],
      "name": "Initialized",
      "type": "event"
    },
    {
      "anonymous": false,
      "inputs": [
        {
          "indexed": false,
          "internalType": "uint16",
          "name": "index",
          "type": "uint16"
        },
        {
          "indexed": false,
          "internalType": "address",
          "name": "storageAddress",
          "type": "address"
        }
      ],
      "name": "NewStorageContract",
      "type": "event"
    },
    {
      "anonymous": false,
      "inputs": [
        {
          "indexed": true,
          "internalType": "address",
          "name": "previousOwner",
          "type": "address"
        },
        {
          "indexed": true,
          "internalType": "address",
          "name": "newOwner",
          "type": "address"
        }
      ],
      "name": "OwnershipTransferred",
      "type": "event"
    },
    {
      "anonymous": false,
      "inputs": [
        {
          "indexed": true,
          "internalType": "address",
          "name": "implementation",
          "type": "address"
        }
      ],
      "name": "Upgraded",
      "type": "event"
    },
    {
      "inputs": [],
      "name": "forceProgress",
      "outputs": [],
      "stateMutability": "nonpayable",
      "type": "function"
    },
    {
      "inputs": [],
      "name": "initialize",
      "outputs": [],
      "stateMutability": "nonpayable",
      "type": "function"
    },
    {
      "inputs": [
        {
          "internalType": "uint256",
          "name": "maxMessageLimit",
          "type": "uint256"
        }
      ],
      "name": "newStorage",
      "outputs": [],
      "stateMutability": "nonpayable",
      "type": "function"
    },
    {
      "inputs": [],
      "name": "nextStorageIndex",
      "outputs": [
        {
          "internalType": "uint16",
          "name": "",
          "type": "uint16"
        }
      ],
      "stateMutability": "view",
      "type": "function"
    },
    {
      "inputs": [],
      "name": "owner",
      "outputs": [
        {
          "internalType": "address",
          "name": "",
          "type": "address"
        }
      ],
      "stateMutability": "view",
      "type": "function"
    },
    {
      "inputs": [],
      "name": "proxiableUUID",
      "outputs": [
        {
          "internalType": "bytes32",
          "name": "",
          "type": "bytes32"
        }
      ],
      "stateMutability": "view",
      "type": "function"
    },
    {
      "inputs": [
        {
          "internalType": "uint256[]",
          "name": "commitments",
          "type": "uint256[]"
        },
        {
          "internalType": "uint256[]",
          "name": "limits",
          "type": "uint256[]"
        }
      ],
      "name": "register",
      "outputs": [],
      "stateMutability": "nonpayable",
      "type": "function"
    },
    {
      "inputs": [
        {
          "internalType": "uint16",
          "name": "storageIndex",
          "type": "uint16"
        },
        {
          "internalType": "uint256",
          "name": "idCommitment",
          "type": "uint256"
        },
        {
          "internalType": "uint256",
          "name": "userMessageLimit",
          "type": "uint256"
        }
      ],
      "name": "register",
      "outputs": [],
      "stateMutability": "nonpayable",
      "type": "function"
    },
    {
      "inputs": [
        {
          "internalType": "uint16",
          "name": "storageIndex",
          "type": "uint16"
        },
        {
          "internalType": "uint256[]",
          "name": "commitments",
          "type": "uint256[]"
        },
        {
          "internalType": "uint256[]",
          "name": "limits",
          "type": "uint256[]"
        }
      ],
      "name": "register",
      "outputs": [],
      "stateMutability": "nonpayable",
      "type": "function"
    },
    {
      "inputs": [
        {
          "internalType": "address",
          "name": "storageAddress",
          "type": "address"
        }
      ],
      "name": "registerStorage",
      "outputs": [],
      "stateMutability": "nonpayable",
      "type": "function"
    },
    {
      "inputs": [],
      "name": "renounceOwnership",
      "outputs": [],
      "stateMutability": "nonpayable",
      "type": "function"
    },
    {
      "inputs": [
        {
          "internalType": "uint16",
          "name": "",
          "type": "uint16"
        }
      ],
      "name": "storages",
      "outputs": [
        {
          "internalType": "address",
          "name": "",
          "type": "address"
        }
      ],
      "stateMutability": "view",
      "type": "function"
    },
    {
      "inputs": [
        {
          "internalType": "address",
          "name": "newOwner",
          "type": "address"
        }
      ],
      "name": "transferOwnership",
      "outputs": [],
      "stateMutability": "nonpayable",
      "type": "function"
    },
    {
      "inputs": [
        {
          "internalType": "address",
          "name": "newImplementation",
          "type": "address"
        }
      ],
      "name": "upgradeTo",
      "outputs": [],
      "stateMutability": "nonpayable",
      "type": "function"
    },
    {
      "inputs": [
        {
          "internalType": "address",
          "name": "newImplementation",
          "type": "address"
        },
        {
          "internalType": "bytes",
          "name": "data",
          "type": "bytes"
        }
      ],
      "name": "upgradeToAndCall",
      "outputs": [],
      "stateMutability": "payable",
      "type": "function"
    },
    {
      "inputs": [],
      "name": "usingStorageIndex",
      "outputs": [
        {
          "internalType": "uint16",
          "name": "",
          "type": "uint16"
        }
      ],
      "stateMutability": "view",
      "type": "function"
    }
  ],
  "transactionHash": "0x8e56c8b9256e4917a619fe1d97fa788f563da9d0eb982cfb0c6624bedf8648b4",
  "args": [],
  "numDeployments": 1,
  "solcInputHash": "1e84cf161e19509fae5fd25de85477de",
  "bytecode": "0x60a06040523073ffffffffffffffffffffffffffffffffffffffff1660809073ffffffffffffffffffffffffffffffffffffffff168152506000606760006101000a81548161ffff021916908361ffff16021790555034801561006157600080fd5b50608051614429610099600039600081816106870152818161071801528181610922015281816109b30152610a6c01526144296000f3fe6080604052600436106200010a5760003560e01c80638da5cb5b1162000097578063f184ef4c1162000061578063f184ef4c14620002f3578063f2fde38b1462000323578063f55421471462000351578063fc6ed4641462000395576200010a565b80638da5cb5b146200024b578063cf616374146200027b578063d44fda1f14620002ab578063ef653d5e14620002c5576200010a565b806352d1902d11620000d957806352d1902d14620001b95780635a244efd14620001e9578063715018a614620002175780638129fc1c1462000231576200010a565b80632de999bf146200010f5780633659cfe6146200013d57806339c0364b146200016b5780634f1ef2861462000199575b600080fd5b3480156200011c57600080fd5b506200013b60048036038101906200013591906200197b565b620003c3565b005b3480156200014a57600080fd5b5062000169600480360381019062000163919062001a6e565b62000685565b005b3480156200017857600080fd5b5062000197600480360381019062000191919062001b1a565b6200081d565b005b620001b76004803603810190620001b1919062001cd3565b62000920565b005b348015620001c657600080fd5b50620001d162000a68565b604051620001e0919062001d54565b60405180910390f35b348015620001f657600080fd5b506200021560048036038101906200020f919062001d71565b62000b24565b005b3480156200022457600080fd5b506200022f62000bc7565b005b3480156200023e57600080fd5b506200024962000bdf565b005b3480156200025857600080fd5b506200026362000d2b565b60405162000272919062001db4565b60405180910390f35b3480156200028857600080fd5b506200029362000d55565b604051620002a2919062001de2565b60405180910390f35b348015620002b857600080fd5b50620002c362000d69565b005b348015620002d257600080fd5b50620002f16004803603810190620002eb919062001a6e565b62000e13565b005b3480156200030057600080fd5b506200030b62000ef4565b6040516200031a919062001de2565b60405180910390f35b3480156200033057600080fd5b506200034f600480360381019062000349919062001a6e565b62000f08565b005b3480156200035e57600080fd5b506200037d600480360381019062000377919062001dff565b62000f92565b6040516200038c919062001db4565b60405180910390f35b348015620003a257600080fd5b50620003c16004803603810190620003bb919062001e31565b62000fc5565b005b606560009054906101000a900461ffff1661ffff16606760009054906101000a900461ffff1661ffff161062000425576040517fd23276a200000000000000000000000000000000000000000000000000000000815260040160405180910390fd5b5b6001156200067f5760666000606760009054906101000a900461ffff1661ffff1661ffff16815260200190815260200160002060009054906101000a900473ffffffffffffffffffffffffffffffffffffffff1673ffffffffffffffffffffffffffffffffffffffff16632de999bf858585856040518563ffffffff1660e01b8152600401620004ba949392919062001f57565b600060405180830381600087803b158015620004d557600080fd5b505af1925050508015620004e7575060015b62000673573d80600081146200051a576040519150601f19603f3d011682016040523d82523d6000602084013e6200051f565b606091505b506040516024016040516020818303038152906040527f57f69531000000000000000000000000000000000000000000000000000000007bffffffffffffffffffffffffffffffffffffffffffffffffffffffff19166020820180517bffffffffffffffffffffffffffffffffffffffffffffffffffffffff838183161783525050505080519060200120818051906020012014620005c057805181602001fd5b606560009054906101000a900461ffff1661ffff166001606760009054906101000a900461ffff16620005f4919062001fc5565b61ffff161062000630576040517fd23276a200000000000000000000000000000000000000000000000000000000815260040160405180910390fd5b6001606760008282829054906101000a900461ffff1662000652919062001fc5565b92506101000a81548161ffff021916908361ffff1602179055505062000679565b6200067f565b62000426565b50505050565b7f000000000000000000000000000000000000000000000000000000000000000073ffffffffffffffffffffffffffffffffffffffff163073ffffffffffffffffffffffffffffffffffffffff160362000716576040517f08c379a00000000000000000000000000000000000000000000000000000000081526004016200070d9062002089565b60405180910390fd5b7f000000000000000000000000000000000000000000000000000000000000000073ffffffffffffffffffffffffffffffffffffffff1662000757620010ce565b73ffffffffffffffffffffffffffffffffffffffff1614620007b0576040517f08c379a0000000000000000000000000000000000000000000000000000000008152600401620007a79062002121565b60405180910390fd5b620007bb8162001127565b6200081a81600067ffffffffffffffff811115620007de57620007dd62001b8c565b5b6040519080825280601f01601f191660200182016040528015620008115781602001600182028036833780820191505090505b50600062001134565b50565b606560009054906101000a900461ffff1661ffff168361ffff16106200086f576040517fd23276a200000000000000000000000000000000000000000000000000000000815260040160405180910390fd5b606660008461ffff1661ffff16815260200190815260200160002060009054906101000a900473ffffffffffffffffffffffffffffffffffffffff1673ffffffffffffffffffffffffffffffffffffffff1663d66d6c1083836040518363ffffffff1660e01b8152600401620008e792919062002154565b600060405180830381600087803b1580156200090257600080fd5b505af115801562000917573d6000803e3d6000fd5b50505050505050565b7f000000000000000000000000000000000000000000000000000000000000000073ffffffffffffffffffffffffffffffffffffffff163073ffffffffffffffffffffffffffffffffffffffff1603620009b1576040517f08c379a0000000000000000000000000000000000000000000000000000000008152600401620009a89062002089565b60405180910390fd5b7f000000000000000000000000000000000000000000000000000000000000000073ffffffffffffffffffffffffffffffffffffffff16620009f2620010ce565b73ffffffffffffffffffffffffffffffffffffffff161462000a4b576040517f08c379a000000000000000000000000000000000000000000000000000000000815260040162000a429062002121565b60405180910390fd5b62000a568262001127565b62000a648282600162001134565b5050565b60007f000000000000000000000000000000000000000000000000000000000000000073ffffffffffffffffffffffffffffffffffffffff163073ffffffffffffffffffffffffffffffffffffffff161462000afb576040517f08c379a000000000000000000000000000000000000000000000000000000000815260040162000af290620021f7565b60405180910390fd5b7f360894a13ba1a3210667c828492db98dca3e2076cc3735a920a3ca505d382bbc60001b905090565b62000b2e620012b3565b6000810362000b69576040517fe671aff300000000000000000000000000000000000000000000000000000000815260040160405180910390fd5b600081606560009054906101000a900461ffff1660405162000b8b90620018eb565b62000b9892919062002219565b604051809103906000f08015801562000bb5573d6000803e3d6000fd5b50905062000bc38162001338565b5050565b62000bd1620012b3565b62000bdd60006200142c565b565b60008060019054906101000a900460ff1615905080801562000c115750600160008054906101000a900460ff1660ff16105b8062000c42575062000c2330620014f2565b15801562000c415750600160008054906101000a900460ff1660ff16145b5b62000c84576040517f08c379a000000000000000000000000000000000000000000000000000000000815260040162000c7b90620022bc565b60405180910390fd5b60016000806101000a81548160ff021916908360ff160217905550801562000cc2576001600060016101000a81548160ff0219169083151502179055505b62000ccc62001515565b801562000d285760008060016101000a81548160ff0219169083151502179055507f7f26b83ff96e1f2b6a682f133852f6798a09c465da95921460cefb3847402498600160405162000d1f919062002338565b60405180910390a15b50565b6000603360009054906101000a900473ffffffffffffffffffffffffffffffffffffffff16905090565b606760009054906101000a900461ffff1681565b62000d73620012b3565b606560009054906101000a900461ffff1661ffff16606760009054906101000a900461ffff1661ffff161062000dd5576040517fd23276a200000000000000000000000000000000000000000000000000000000815260040160405180910390fd5b6001606760008282829054906101000a900461ffff1662000df7919062001fc5565b92506101000a81548161ffff021916908361ffff160217905550565b62000e1d620012b3565b6000819050606560009054906101000a900461ffff1661ffff168173ffffffffffffffffffffffffffffffffffffffff166328b070e06040518163ffffffff1660e01b8152600401602060405180830381865afa15801562000e83573d6000803e3d6000fd5b505050506040513d601f19601f8201168201806040525081019062000ea991906200236c565b61ffff161462000ee5576040517fb893b72300000000000000000000000000000000000000000000000000000000815260040160405180910390fd5b62000ef08262001338565b5050565b606560009054906101000a900461ffff1681565b62000f12620012b3565b600073ffffffffffffffffffffffffffffffffffffffff168173ffffffffffffffffffffffffffffffffffffffff160362000f84576040517f08c379a000000000000000000000000000000000000000000000000000000000815260040162000f7b9062002414565b60405180910390fd5b62000f8f816200142c565b50565b60666020528060005260406000206000915054906101000a900473ffffffffffffffffffffffffffffffffffffffff1681565b606560009054906101000a900461ffff1661ffff168561ffff161062001017576040517fd23276a200000000000000000000000000000000000000000000000000000000815260040160405180910390fd5b606660008661ffff1661ffff16815260200190815260200160002060009054906101000a900473ffffffffffffffffffffffffffffffffffffffff1673ffffffffffffffffffffffffffffffffffffffff16632de999bf858585856040518563ffffffff1660e01b815260040162001093949392919062001f57565b600060405180830381600087803b158015620010ae57600080fd5b505af1158015620010c3573d6000803e3d6000fd5b505050505050505050565b6000620010fe7f360894a13ba1a3210667c828492db98dca3e2076cc3735a920a3ca505d382bbc60001b62001573565b60000160009054906101000a900473ffffffffffffffffffffffffffffffffffffffff16905090565b62001131620012b3565b50565b620011627f4910fdfa16fed3260ed0e7147f7cc6da11a60208b5b9406d12a635614ffd914360001b6200157d565b60000160009054906101000a900460ff16156200118a57620011848362001587565b620012ae565b8273ffffffffffffffffffffffffffffffffffffffff166352d1902d6040518163ffffffff1660e01b8152600401602060405180830381865afa925050508015620011f557506040513d601f19601f82011682018060405250810190620011f2919062002467565b60015b62001237576040517f08c379a00000000000000000000000000000000000000000000000000000000081526004016200122e906200250f565b60405180910390fd5b7f360894a13ba1a3210667c828492db98dca3e2076cc3735a920a3ca505d382bbc60001b81146200129f576040517f08c379a00000000000000000000000000000000000000000000000000000000081526004016200129690620025a7565b60405180910390fd5b50620012ad83838362001647565b5b505050565b620012bd62001679565b73ffffffffffffffffffffffffffffffffffffffff16620012dd62000d2b565b73ffffffffffffffffffffffffffffffffffffffff161462001336576040517f08c379a00000000000000000000000000000000000000000000000000000000081526004016200132d9062002619565b60405180910390fd5b565b8060666000606560009054906101000a900461ffff1661ffff1661ffff16815260200190815260200160002060006101000a81548173ffffffffffffffffffffffffffffffffffffffff021916908373ffffffffffffffffffffffffffffffffffffffff1602179055507fcf6a3b406170499209d0fcf152a1605c7c5a5c99c855e2bb803433fc960718eb606560009054906101000a900461ffff1682604051620013e59291906200263b565b60405180910390a16001606560008282829054906101000a900461ffff166200140f919062001fc5565b92506101000a81548161ffff021916908361ffff16021790555050565b6000603360009054906101000a900473ffffffffffffffffffffffffffffffffffffffff16905081603360006101000a81548173ffffffffffffffffffffffffffffffffffffffff021916908373ffffffffffffffffffffffffffffffffffffffff1602179055508173ffffffffffffffffffffffffffffffffffffffff168173ffffffffffffffffffffffffffffffffffffffff167f8be0079c531659141344cd1fd0a4f28419497f9722a3daafe3b4186f6b6457e060405160405180910390a35050565b6000808273ffffffffffffffffffffffffffffffffffffffff163b119050919050565b600060019054906101000a900460ff1662001567576040517f08c379a00000000000000000000000000000000000000000000000000000000081526004016200155e90620026de565b60405180910390fd5b6200157162001681565b565b6000819050919050565b6000819050919050565b6200159281620016e9565b620015d4576040517f08c379a0000000000000000000000000000000000000000000000000000000008152600401620015cb9062002776565b60405180910390fd5b80620016037f360894a13ba1a3210667c828492db98dca3e2076cc3735a920a3ca505d382bbc60001b62001573565b60000160006101000a81548173ffffffffffffffffffffffffffffffffffffffff021916908373ffffffffffffffffffffffffffffffffffffffff16021790555050565b62001652836200170c565b600082511180620016605750805b1562001674576200167283836200175d565b505b505050565b600033905090565b600060019054906101000a900460ff16620016d3576040517f08c379a0000000000000000000000000000000000000000000000000000000008152600401620016ca90620026de565b60405180910390fd5b620016e7620016e162001679565b6200142c565b565b6000808273ffffffffffffffffffffffffffffffffffffffff163b119050919050565b620017178162001587565b8073ffffffffffffffffffffffffffffffffffffffff167fbc7cd75a20ee27fd9adebab32041f755214dbc6bffa90cc0225b39da2e5c2d3b60405160405180910390a250565b6060620017858383604051806060016040528060278152602001620043cd602791396200178d565b905092915050565b60606000808573ffffffffffffffffffffffffffffffffffffffff1685604051620017b9919062002811565b600060405180830381855af49150503d8060008114620017f6576040519150601f19603f3d011682016040523d82523d6000602084013e620017fb565b606091505b50915091506200180e8683838762001819565b925050509392505050565b60608315620018835760008351036200187a576200183785620016e9565b62001879576040517f08c379a000000000000000000000000000000000000000000000000000000000815260040162001870906200287a565b60405180910390fd5b5b82905062001890565b6200188f838362001898565b5b949350505050565b600082511115620018ac5781518083602001fd5b806040517f08c379a0000000000000000000000000000000000000000000000000000000008152600401620018e29190620028e8565b60405180910390fd5b611ac0806200290d83390190565b6000604051905090565b600080fd5b600080fd5b600080fd5b600080fd5b600080fd5b60008083601f8401126200193557620019346200190d565b5b8235905067ffffffffffffffff81111562001955576200195462001912565b5b60208301915083602082028301111562001974576200197362001917565b5b9250929050565b6000806000806040858703121562001998576200199762001903565b5b600085013567ffffffffffffffff811115620019b957620019b862001908565b5b620019c7878288016200191c565b9450945050602085013567ffffffffffffffff811115620019ed57620019ec62001908565b5b620019fb878288016200191c565b925092505092959194509250565b600073ffffffffffffffffffffffffffffffffffffffff82169050919050565b600062001a368262001a09565b9050919050565b62001a488162001a29565b811462001a5457600080fd5b50565b60008135905062001a688162001a3d565b92915050565b60006020828403121562001a875762001a8662001903565b5b600062001a978482850162001a57565b91505092915050565b600061ffff82169050919050565b62001ab98162001aa0565b811462001ac557600080fd5b50565b60008135905062001ad98162001aae565b92915050565b6000819050919050565b62001af48162001adf565b811462001b0057600080fd5b50565b60008135905062001b148162001ae9565b92915050565b60008060006060848603121562001b365762001b3562001903565b5b600062001b468682870162001ac8565b935050602062001b598682870162001b03565b925050604062001b6c8682870162001b03565b9150509250925092565b600080fd5b6000601f19601f8301169050919050565b7f4e487b7100000000000000000000000000000000000000000000000000000000600052604160045260246000fd5b62001bc68262001b7b565b810181811067ffffffffffffffff8211171562001be85762001be762001b8c565b5b80604052505050565b600062001bfd620018f9565b905062001c0b828262001bbb565b919050565b600067ffffffffffffffff82111562001c2e5762001c2d62001b8c565b5b62001c398262001b7b565b9050602081019050919050565b82818337600083830152505050565b600062001c6c62001c668462001c10565b62001bf1565b90508281526020810184848401111562001c8b5762001c8a62001b76565b5b62001c9884828562001c46565b509392505050565b600082601f83011262001cb85762001cb76200190d565b5b813562001cca84826020860162001c55565b91505092915050565b6000806040838503121562001ced5762001cec62001903565b5b600062001cfd8582860162001a57565b925050602083013567ffffffffffffffff81111562001d215762001d2062001908565b5b62001d2f8582860162001ca0565b9150509250929050565b6000819050919050565b62001d4e8162001d39565b82525050565b600060208201905062001d6b600083018462001d43565b92915050565b60006020828403121562001d8a5762001d8962001903565b5b600062001d9a8482850162001b03565b91505092915050565b62001dae8162001a29565b82525050565b600060208201905062001dcb600083018462001da3565b92915050565b62001ddc8162001aa0565b82525050565b600060208201905062001df9600083018462001dd1565b92915050565b60006020828403121562001e185762001e1762001903565b5b600062001e288482850162001ac8565b91505092915050565b60008060008060006060868803121562001e505762001e4f62001903565b5b600062001e608882890162001ac8565b955050602086013567ffffffffffffffff81111562001e845762001e8362001908565b5b62001e92888289016200191c565b9450945050604086013567ffffffffffffffff81111562001eb85762001eb762001908565b5b62001ec6888289016200191c565b92509250509295509295909350565b600082825260208201905092915050565b600080fd5b82818337505050565b600062001f02838562001ed5565b93507f07ffffffffffffffffffffffffffffffffffffffffffffffffffffffffffffff83111562001f385762001f3762001ee6565b5b60208302925062001f4b83858462001eeb565b82840190509392505050565b6000604082019050818103600083015262001f7481868862001ef4565b9050818103602083015262001f8b81848662001ef4565b905095945050505050565b7f4e487b7100000000000000000000000000000000000000000000000000000000600052601160045260246000fd5b600062001fd28262001aa0565b915062001fdf8362001aa0565b9250828201905061ffff81111562001ffc5762001ffb62001f96565b5b92915050565b600082825260208201905092915050565b7f46756e6374696f6e206d7573742062652063616c6c6564207468726f7567682060008201527f64656c656761746563616c6c0000000000000000000000000000000000000000602082015250565b600062002071602c8362002002565b91506200207e8262002013565b604082019050919050565b60006020820190508181036000830152620020a48162002062565b9050919050565b7f46756e6374696f6e206d7573742062652063616c6c6564207468726f7567682060008201527f6163746976652070726f78790000000000000000000000000000000000000000602082015250565b600062002109602c8362002002565b91506200211682620020ab565b604082019050919050565b600060208201905081810360008301526200213c81620020fa565b9050919050565b6200214e8162001adf565b82525050565b60006040820190506200216b600083018562002143565b6200217a602083018462002143565b9392505050565b7f555550535570677261646561626c653a206d757374206e6f742062652063616c60008201527f6c6564207468726f7567682064656c656761746563616c6c0000000000000000602082015250565b6000620021df60388362002002565b9150620021ec8262002181565b604082019050919050565b600060208201905081810360008301526200221281620021d0565b9050919050565b600060408201905062002230600083018562002143565b6200223f602083018462001dd1565b9392505050565b7f496e697469616c697a61626c653a20636f6e747261637420697320616c72656160008201527f647920696e697469616c697a6564000000000000000000000000000000000000602082015250565b6000620022a4602e8362002002565b9150620022b18262002246565b604082019050919050565b60006020820190508181036000830152620022d78162002295565b9050919050565b6000819050919050565b600060ff82169050919050565b6000819050919050565b6000620023206200231a6200231484620022de565b620022f5565b620022e8565b9050919050565b6200233281620022ff565b82525050565b60006020820190506200234f600083018462002327565b92915050565b600081519050620023668162001aae565b92915050565b60006020828403121562002385576200238462001903565b5b6000620023958482850162002355565b91505092915050565b7f4f776e61626c653a206e6577206f776e657220697320746865207a65726f206160008201527f6464726573730000000000000000000000000000000000000000000000000000602082015250565b6000620023fc60268362002002565b915062002409826200239e565b604082019050919050565b600060208201905081810360008301526200242f81620023ed565b9050919050565b620024418162001d39565b81146200244d57600080fd5b50565b600081519050620024618162002436565b92915050565b60006020828403121562002480576200247f62001903565b5b6000620024908482850162002450565b91505092915050565b7f45524331393637557067726164653a206e657720696d706c656d656e7461746960008201527f6f6e206973206e6f742055555053000000000000000000000000000000000000602082015250565b6000620024f7602e8362002002565b9150620025048262002499565b604082019050919050565b600060208201905081810360008301526200252a81620024e8565b9050919050565b7f45524331393637557067726164653a20756e737570706f727465642070726f7860008201527f6961626c65555549440000000000000000000000000000000000000000000000602082015250565b60006200258f60298362002002565b91506200259c8262002531565b604082019050919050565b60006020820190508181036000830152620025c28162002580565b9050919050565b7f4f776e61626c653a2063616c6c6572206973206e6f7420746865206f776e6572600082015250565b60006200260160208362002002565b91506200260e82620025c9565b602082019050919050565b600060208201905081810360008301526200263481620025f2565b9050919050565b600060408201905062002652600083018562001dd1565b62002661602083018462001da3565b9392505050565b7f496e697469616c697a61626c653a20636f6e7472616374206973206e6f74206960008201527f6e697469616c697a696e67000000000000000000000000000000000000000000602082015250565b6000620026c6602b8362002002565b9150620026d38262002668565b604082019050919050565b60006020820190508181036000830152620026f981620026b7565b9050919050565b7f455243313936373a206e657720696d706c656d656e746174696f6e206973206e60008201527f6f74206120636f6e747261637400000000000000000000000000000000000000602082015250565b60006200275e602d8362002002565b91506200276b8262002700565b604082019050919050565b6000602082019050818103600083015262002791816200274f565b9050919050565b600081519050919050565b600081905092915050565b60005b83811015620027ce578082015181840152602081019050620027b1565b60008484015250505050565b6000620027e78262002798565b620027f38185620027a3565b935062002805818560208601620027ae565b80840191505092915050565b60006200281f8284620027da565b915081905092915050565b7f416464726573733a2063616c6c20746f206e6f6e2d636f6e7472616374000000600082015250565b600062002862601d8362002002565b91506200286f826200282a565b602082019050919050565b60006020820190508181036000830152620028958162002853565b9050919050565b600081519050919050565b6000620028b4826200289c565b620028c0818562002002565b9350620028d2818560208601620027ae565b620028dd8162001b7b565b840191505092915050565b60006020820190508181036000830152620029048184620028a7565b90509291505056fe61016060405260006001553480156200001757600080fd5b5060405162001ac038038062001ac083398181016040528101906200003d91906200023a565b600060148360006200006462000058620000ef60201b60201c565b620000f760201b60201c565b8360a0818152505081608081815250508260c08181525050826001901b60e081815250508073ffffffffffffffffffffffffffffffffffffffff166101008173ffffffffffffffffffffffffffffffffffffffff16815250504363ffffffff166101208163ffffffff1681525050505050508061ffff166101408161ffff1681525050505062000281565b600033905090565b60008060009054906101000a900473ffffffffffffffffffffffffffffffffffffffff169050816000806101000a81548173ffffffffffffffffffffffffffffffffffffffff021916908373ffffffffffffffffffffffffffffffffffffffff1602179055508173ffffffffffffffffffffffffffffffffffffffff168173ffffffffffffffffffffffffffffffffffffffff167f8be0079c531659141344cd1fd0a4f28419497f9722a3daafe3b4186f6b6457e060405160405180910390a35050565b600080fd5b6000819050919050565b620001d581620001c0565b8114620001e157600080fd5b50565b600081519050620001f581620001ca565b92915050565b600061ffff82169050919050565b6200021481620001fb565b81146200022057600080fd5b50565b600081519050620002348162000209565b92915050565b60008060408385031215620002545762000253620001bb565b5b60006200026485828601620001e4565b9250506020620002778582860162000223565b9150509250929050565b60805160a05160c05160e0516101005161012051610140516117cf620002f16000396000610661015260006107c401526000610685015260008181610a4a0152610f24015260006109f001526000818161075f0152610aa00152600081816106050152610dd201526117cf6000f3fe6080604052600436106101665760003560e01c80638be9b119116100d1578063bc4991281161008a578063d66d6c1011610064578063d66d6c1014610568578063e493ef8c14610584578063f220b9ec146105af578063f2fde38b146105da57610166565b8063bc499128146104c3578063c5b208ff14610500578063d0383d681461053d57610166565b80638be9b1191461039f5780638da5cb5b146103c85780639056a9bf146103f3578063933ebfdd1461043057806398366e351461046d578063ae74552a1461049857610166565b80633ccfd60b116101235780633ccfd60b1461028f5780634add651e146102a65780635daf08ca146102d15780636bdcc8ab1461030e578063715018a61461034b5780637671ac051461036257610166565b806309aeb04c1461016b57806322d9730c1461019657806328b070e0146101d35780632b7ac3f3146101fe5780632de999bf14610229578063378de45b14610252575b600080fd5b34801561017757600080fd5b50610180610603565b60405161018d9190610f9c565b60405180910390f35b3480156101a257600080fd5b506101bd60048036038101906101b89190610fed565b610627565b6040516101ca9190611035565b60405180910390f35b3480156101df57600080fd5b506101e861065f565b6040516101f5919061106d565b60405180910390f35b34801561020a57600080fd5b50610213610683565b6040516102209190611107565b60405180910390f35b34801561023557600080fd5b50610250600480360381019061024b9190611187565b6106a7565b005b34801561025e57600080fd5b5061027960048036038101906102749190610fed565b61075b565b6040516102869190610f9c565b60405180910390f35b34801561029b57600080fd5b506102a4610790565b005b3480156102b257600080fd5b506102bb6107c2565b6040516102c89190611227565b60405180910390f35b3480156102dd57600080fd5b506102f860048036038101906102f39190610fed565b6107e6565b6040516103059190610f9c565b60405180910390f35b34801561031a57600080fd5b5061033560048036038101906103309190610fed565b6107fe565b6040516103429190611035565b60405180910390f35b34801561035757600080fd5b5061036061081e565b005b34801561036e57600080fd5b5061038960048036038101906103849190610fed565b610832565b6040516103969190610f9c565b60405180910390f35b3480156103ab57600080fd5b506103c660048036038101906103c191906112a2565b61084a565b005b3480156103d457600080fd5b506103dd61085a565b6040516103ea9190611317565b60405180910390f35b3480156103ff57600080fd5b5061041a60048036038101906104159190610fed565b610883565b6040516104279190610f9c565b60405180910390f35b34801561043c57600080fd5b5061045760048036038101906104529190611332565b61089b565b6040516104649190611430565b60405180910390f35b34801561047957600080fd5b506104826109ee565b60405161048f9190610f9c565b60405180910390f35b3480156104a457600080fd5b506104ad610a12565b6040516104ba9190610f9c565b60405180910390f35b3480156104cf57600080fd5b506104ea60048036038101906104e59190610fed565b610a18565b6040516104f79190610f9c565b60405180910390f35b34801561050c57600080fd5b506105276004803603810190610522919061147e565b610a30565b6040516105349190610f9c565b60405180910390f35b34801561054957600080fd5b50610552610a48565b60405161055f9190610f9c565b60405180910390f35b610582600480360381019061057d9190611332565b610a6c565b005b34801561059057600080fd5b50610599610a7a565b6040516105a69190610f9c565b60405180910390f35b3480156105bb57600080fd5b506105c4610a9e565b6040516105d19190610f9c565b60405180910390f35b3480156105e657600080fd5b5061060160048036038101906105fc919061147e565b610ac2565b005b7f000000000000000000000000000000000000000000000000000000000000000081565b600080821415801561065857507f30644e72e131a029b85045b68181585d2833e84879b9709143e1f593f000000182105b9050919050565b7f000000000000000000000000000000000000000000000000000000000000000081565b7f000000000000000000000000000000000000000000000000000000000000000081565b6106af610b45565b838383836106bf84848484610bc3565b6106f5576040517fb750624800000000000000000000000000000000000000000000000000000000815260040160405180910390fd5b600088889050905060005b8181101561074f576107448a8a8381811061071e5761071d6114ab565b5b90506020020135898984818110610738576107376114ab565b5b90506020020135610bf5565b806001019050610700565b50505050505050505050565b60007f0000000000000000000000000000000000000000000000000000000000000000826107899190611509565b9050919050565b6040517fd623472500000000000000000000000000000000000000000000000000000000815260040160405180910390fd5b7f000000000000000000000000000000000000000000000000000000000000000081565b60036020528060005260406000206000915090505481565b60066020528060005260406000206000915054906101000a900460ff1681565b610826610b45565b6108306000610cd1565b565b60056020528060005260406000206000915090505481565b610855838383610d95565b505050565b60008060009054906101000a900473ffffffffffffffffffffffffffffffffffffffff16905090565b60046020528060005260406000206000915090505481565b60608183106108e35782826040517f9ffcd53d0000000000000000000000000000000000000000000000000000000081526004016108da92919061154b565b60405180910390fd5b60015482111561092c5782826040517f9ffcd53d00000000000000000000000000000000000000000000000000000000815260040161092392919061154b565b60405180910390fd5b6000838361093a9190611574565b67ffffffffffffffff811115610953576109526115a8565b5b6040519080825280602002602001820160405280156109815781602001602082028036833780820191505090505b50905060008490505b838110156109e35760056000828152602001908152602001600020548286836109b39190611574565b815181106109c4576109c36114ab565b5b60200260200101818152505080806109db906115d7565b91505061098a565b508091505092915050565b7f000000000000000000000000000000000000000000000000000000000000000081565b60015481565b60026020528060005260406000206000915090505481565b60076020528060005260406000206000915090505481565b7f000000000000000000000000000000000000000000000000000000000000000081565b610a768282610bf5565b5050565b7f30644e72e131a029b85045b68181585d2833e84879b9709143e1f593f000000181565b7f000000000000000000000000000000000000000000000000000000000000000081565b610aca610b45565b600073ffffffffffffffffffffffffffffffffffffffff168173ffffffffffffffffffffffffffffffffffffffff1603610b39576040517f08c379a0000000000000000000000000000000000000000000000000000000008152600401610b30906116a2565b60405180910390fd5b610b4281610cd1565b50565b610b4d610dc7565b73ffffffffffffffffffffffffffffffffffffffff16610b6b61085a565b73ffffffffffffffffffffffffffffffffffffffff1614610bc1576040517f08c379a0000000000000000000000000000000000000000000000000000000008152600401610bb89061170e565b60405180910390fd5b565b6000808585905090506000848490509050808214610be657600092505050610bed565b6001925050505b949350505050565b610bff8282610dcf565b6001546003600084815260200190815260200160002081905550816005600060015481526020019081526020016000208190555060016006600084815260200190815260200160002060006101000a81548160ff0219169083151502179055508060046000848152602001908152602001600020819055507fff42916a89d1f5125f7f47168ee59c2b3fc9246ad1b229082ee85b69d001b5d78282600154604051610cac9392919061172e565b60405180910390a16001806000828254610cc69190611765565b925050819055505050565b60008060009054906101000a900473ffffffffffffffffffffffffffffffffffffffff169050816000806101000a81548173ffffffffffffffffffffffffffffffffffffffff021916908373ffffffffffffffffffffffffffffffffffffffff1602179055508173ffffffffffffffffffffffffffffffffffffffff168173ffffffffffffffffffffffffffffffffffffffff167f8be0079c531659141344cd1fd0a4f28419497f9722a3daafe3b4186f6b6457e060405160405180910390a35050565b6040517fd623472500000000000000000000000000000000000000000000000000000000815260040160405180910390fd5b600033905090565b807f0000000000000000000000000000000000000000000000000000000000000000811115610e3557806040517f13a5e2ee000000000000000000000000000000000000000000000000000000008152600401610e2c9190610f9c565b60405180910390fd5b60008103610e7a57806040517f13a5e2ee000000000000000000000000000000000000000000000000000000008152600401610e719190610f9c565b60405180910390fd5b82610e8481610627565b610ec557806040517f7f3e75af000000000000000000000000000000000000000000000000000000008152600401610ebc9190610f9c565b60405180910390fd5b600115156006600086815260200190815260200160002060009054906101000a900460ff16151503610f22576040517e0a60f700000000000000000000000000000000000000000000000000000000815260040160405180910390fd5b7f000000000000000000000000000000000000000000000000000000000000000060015410610f7d576040517f57f6953100000000000000000000000000000000000000000000000000000000815260040160405180910390fd5b50505050565b6000819050919050565b610f9681610f83565b82525050565b6000602082019050610fb16000830184610f8d565b92915050565b600080fd5b600080fd5b610fca81610f83565b8114610fd557600080fd5b50565b600081359050610fe781610fc1565b92915050565b60006020828403121561100357611002610fb7565b5b600061101184828501610fd8565b91505092915050565b60008115159050919050565b61102f8161101a565b82525050565b600060208201905061104a6000830184611026565b92915050565b600061ffff82169050919050565b61106781611050565b82525050565b6000602082019050611082600083018461105e565b92915050565b600073ffffffffffffffffffffffffffffffffffffffff82169050919050565b6000819050919050565b60006110cd6110c86110c384611088565b6110a8565b611088565b9050919050565b60006110df826110b2565b9050919050565b60006110f1826110d4565b9050919050565b611101816110e6565b82525050565b600060208201905061111c60008301846110f8565b92915050565b600080fd5b600080fd5b600080fd5b60008083601f84011261114757611146611122565b5b8235905067ffffffffffffffff81111561116457611163611127565b5b6020830191508360208202830111156111805761117f61112c565b5b9250929050565b600080600080604085870312156111a1576111a0610fb7565b5b600085013567ffffffffffffffff8111156111bf576111be610fbc565b5b6111cb87828801611131565b9450945050602085013567ffffffffffffffff8111156111ee576111ed610fbc565b5b6111fa87828801611131565b925092505092959194509250565b600063ffffffff82169050919050565b61122181611208565b82525050565b600060208201905061123c6000830184611218565b92915050565b600061124d82611088565b9050919050565b61125d81611242565b811461126857600080fd5b50565b60008135905061127a81611254565b92915050565b60008190508260206008028201111561129c5761129b61112c565b5b92915050565b600080600061014084860312156112bc576112bb610fb7565b5b60006112ca86828701610fd8565b93505060206112db8682870161126b565b92505060406112ec86828701611280565b9150509250925092565b600061130182611088565b9050919050565b611311816112f6565b82525050565b600060208201905061132c6000830184611308565b92915050565b6000806040838503121561134957611348610fb7565b5b600061135785828601610fd8565b925050602061136885828601610fd8565b9150509250929050565b600081519050919050565b600082825260208201905092915050565b6000819050602082019050919050565b6113a781610f83565b82525050565b60006113b9838361139e565b60208301905092915050565b6000602082019050919050565b60006113dd82611372565b6113e7818561137d565b93506113f28361138e565b8060005b8381101561142357815161140a88826113ad565b9750611415836113c5565b9250506001810190506113f6565b5085935050505092915050565b6000602082019050818103600083015261144a81846113d2565b905092915050565b61145b816112f6565b811461146657600080fd5b50565b60008135905061147881611452565b92915050565b60006020828403121561149457611493610fb7565b5b60006114a284828501611469565b91505092915050565b7f4e487b7100000000000000000000000000000000000000000000000000000000600052603260045260246000fd5b7f4e487b7100000000000000000000000000000000000000000000000000000000600052601160045260246000fd5b600061151482610f83565b915061151f83610f83565b925082820261152d81610f83565b91508282048414831517611544576115436114da565b5b5092915050565b60006040820190506115606000830185610f8d565b61156d6020830184610f8d565b9392505050565b600061157f82610f83565b915061158a83610f83565b92508282039050818111156115a2576115a16114da565b5b92915050565b7f4e487b7100000000000000000000000000000000000000000000000000000000600052604160045260246000fd5b60006115e282610f83565b91507fffffffffffffffffffffffffffffffffffffffffffffffffffffffffffffffff8203611614576116136114da565b5b600182019050919050565b600082825260208201905092915050565b7f4f776e61626c653a206e6577206f776e657220697320746865207a65726f206160008201527f6464726573730000000000000000000000000000000000000000000000000000602082015250565b600061168c60268361161f565b915061169782611630565b604082019050919050565b600060208201905081810360008301526116bb8161167f565b9050919050565b7f4f776e61626c653a2063616c6c6572206973206e6f7420746865206f776e6572600082015250565b60006116f860208361161f565b9150611703826116c2565b602082019050919050565b60006020820190508181036000830152611727816116eb565b9050919050565b60006060820190506117436000830186610f8d565b6117506020830185610f8d565b61175d6040830184610f8d565b949350505050565b600061177082610f83565b915061177b83610f83565b9250828201905080821115611793576117926114da565b5b9291505056fea2646970667358221220f3d63817472861b92ed47c1c0a059033d26762a83df789a2f02dba13d9cc3df464736f6c63430008130033416464726573733a206c6f772d6c6576656c2064656c65676174652063616c6c206661696c6564a26469706673582212206950adc7c418dd947ac3e184fb9f4d3a3206a03ca637b1c5a6fa23e8ae800c7464736f6c63430008130033",
  "devdoc": {
    "events": {
      "AdminChanged(address,address)": {
        "details": "Emitted when the admin account has changed."
      },
      "BeaconUpgraded(address)": {
        "details": "Emitted when the beacon is changed."
      },
      "Initialized(uint8)": {
        "details": "Triggered when the contract has been initialized or reinitialized."
      },
      "Upgraded(address)": {
        "details": "Emitted when the implementation is upgraded."
      }
    },
    "kind": "dev",
    "methods": {
      "owner()": {
        "details": "Returns the address of the current owner."
      },
      "proxiableUUID()": {
        "details": "Implementation of the ERC1822 {proxiableUUID} function. This returns the storage slot used by the implementation. It is used to validate the implementation's compatibility when performing an upgrade. IMPORTANT: A proxy pointing at a proxiable contract should not be considered proxiable itself, because this risks bricking a proxy that upgrades to it, by delegating to itself until out of gas. Thus it is critical that this function revert if invoked through a proxy. This is guaranteed by the `notDelegated` modifier."
      },
      "renounceOwnership()": {
        "details": "Leaves the contract without owner. It will not be possible to call `onlyOwner` functions. Can only be called by the current owner. NOTE: Renouncing ownership will leave the contract without an owner, thereby disabling any functionality that is only available to the owner."
      },
      "transferOwnership(address)": {
        "details": "Transfers ownership of the contract to a new account (`newOwner`). Can only be called by the current owner."
      },
      "upgradeTo(address)": {
        "custom:oz-upgrades-unsafe-allow-reachable": "delegatecall",
        "details": "Upgrade the implementation of the proxy to `newImplementation`. Calls {_authorizeUpgrade}. Emits an {Upgraded} event."
      },
      "upgradeToAndCall(address,bytes)": {
        "custom:oz-upgrades-unsafe-allow-reachable": "delegatecall",
        "details": "Upgrade the implementation of the proxy to `newImplementation`, and subsequently execute the function call encoded in `data`. Calls {_authorizeUpgrade}. Emits an {Upgraded} event."
      }
    },
    "version": 1
  },
  "userdoc": {
    "kind": "user",
    "methods": {},
    "version": 1
  },
  "storageLayout": {
    "storage": [
      {
        "astId": 686,
        "contract": "contracts/WakuRlnRegistry.sol:WakuRlnRegistry",
        "label": "_initialized",
        "offset": 0,
        "slot": "0",
        "type": "t_uint8"
      },
      {
        "astId": 689,
        "contract": "contracts/WakuRlnRegistry.sol:WakuRlnRegistry",
        "label": "_initializing",
        "offset": 1,
        "slot": "0",
        "type": "t_bool"
      },
      {
        "astId": 1219,
        "contract": "contracts/WakuRlnRegistry.sol:WakuRlnRegistry",
        "label": "__gap",
        "offset": 0,
        "slot": "1",
        "type": "t_array(t_uint256)50_storage"
      },
      {
        "astId": 558,
        "contract": "contracts/WakuRlnRegistry.sol:WakuRlnRegistry",
        "label": "_owner",
        "offset": 0,
        "slot": "51",
        "type": "t_address"
      },
      {
        "astId": 678,
        "contract": "contracts/WakuRlnRegistry.sol:WakuRlnRegistry",
        "label": "__gap",
        "offset": 0,
        "slot": "52",
        "type": "t_array(t_uint256)49_storage"
      },
      {
        "astId": 295,
        "contract": "contracts/WakuRlnRegistry.sol:WakuRlnRegistry",
        "label": "nextStorageIndex",
        "offset": 0,
        "slot": "101",
        "type": "t_uint16"
      },
      {
        "astId": 299,
        "contract": "contracts/WakuRlnRegistry.sol:WakuRlnRegistry",
        "label": "storages",
        "offset": 0,
        "slot": "102",
        "type": "t_mapping(t_uint16,t_address)"
      },
      {
        "astId": 302,
        "contract": "contracts/WakuRlnRegistry.sol:WakuRlnRegistry",
        "label": "usingStorageIndex",
        "offset": 0,
        "slot": "103",
        "type": "t_uint16"
      }
    ],
    "types": {
      "t_address": {
        "encoding": "inplace",
        "label": "address",
        "numberOfBytes": "20"
      },
      "t_array(t_uint256)49_storage": {
        "base": "t_uint256",
        "encoding": "inplace",
        "label": "uint256[49]",
        "numberOfBytes": "1568"
      },
      "t_array(t_uint256)50_storage": {
        "base": "t_uint256",
        "encoding": "inplace",
        "label": "uint256[50]",
        "numberOfBytes": "1600"
      },
      "t_bool": {
        "encoding": "inplace",
        "label": "bool",
        "numberOfBytes": "1"
      },
      "t_mapping(t_uint16,t_address)": {
        "encoding": "mapping",
        "key": "t_uint16",
        "label": "mapping(uint16 => address)",
        "numberOfBytes": "32",
        "value": "t_address"
      },
      "t_uint16": {
        "encoding": "inplace",
        "label": "uint16",
        "numberOfBytes": "2"
      },
      "t_uint256": {
        "encoding": "inplace",
        "label": "uint256",
        "numberOfBytes": "32"
      },
      "t_uint8": {
        "encoding": "inplace",
        "label": "uint8",
        "numberOfBytes": "1"
      }
    }
  }
}